:100000000EC01BC01AC019C018C017C016C015C03A
:1000100015C013C012C011C010C00FC00EC01124F3
:100020001FBECFEDCDBF20E0A0E6B0E001C01D9225
:10003000A436B207E1F75FD01DC2E2CF1F920F9244
:100040000FB60F9211242F933F934F935F936F93AB
:100050007F938F939F93AF93BF93EF93FF9386B359
:100060008295817091E0892780936200809162007F
:10007000882311F085B101C080E0809363008091F6
:10008000610090916300891799F09091600021E0E0
:10009000290F20936000943159F4109260009091E0
:1000A0006300891710F48F5F01C081508093610055
:1000B0006091610070E080E090E0E5D020E030E009
:1000C0004FE25FE36CD120E030E040EA52E449D0F7
:1000D000ACD069BDFF91EF91BF91AF919F918F918E
:1000E0007F916F915F914F913F912F910F900FBE34
:1000F0000F901F90189587B3836087BBBC98C49AF4
:100100008AB583688ABD83B7816083BF86B18F6EED
:1001100086B987B1816287B985E0C19A2FEF31EE48
:1001200094E0215030409040E1F700C00000C198B9
:100130002FEF31EE94E0215030409040E1F700C0C5
:100140000000815051F7789480916300882331F04A
:1001500080916200882311F0C19AF6CFC198F4CF44
:100160005058BB27AA270ED0E0C0D1D030F0D6D04F
:1001700020F031F49F3F11F41EF4C6C00EF4E09558
:10018000E7FBBCC0E92FE2D080F3BA176207730720
:100190008407950718F071F49EF5FAC00EF4E09507
:1001A0000B2EBA2FA02D0B01B90190010C01CA0131
:1001B000A0011124FF27591B99F0593F50F4503EDC
:1001C00068F11A16F040A22F232F342F4427585FCE
:1001D000F3CF469537952795A795F0405395C9F7E6
:1001E0007EF41F16BA0B620B730B840BBAF091509E
:1001F000A1F0FF0FBB1F661F771F881FC2F70EC03D
:10020000BA0F621F731F841F48F48795779567950F
:10021000B795F7959E3F08F0B3CF9395880F08F0F8
:100220009927EE0F97958795089598D088F09F5756
:1002300090F0B92F9927B751A0F0D1F0660F771F32
:10024000881F991F1AF0BA95C9F712C0B13081F012
:100250009FD0B1E008959CC0672F782F8827B85FA2
:1002600039F0B93FCCF3869577956795B395D9F773
:100270003EF490958095709561957F4F8F4F9F4F7D
:100280000895E89409C097FB3EF490958095709589
:1002900061957F4F8F4F9F4F9923A9F0F92F96E9D2
:1002A000BB279395F695879577956795B795F11147
:1002B000F8CFFAF4BB0F11F460FF1BC06F5F7F4FE4
:1002C0008F4F9F4F16C0882311F096E911C07723F6
:1002D00021F09EE8872F762F05C0662371F096E8FF
:1002E000862F70E060E02AF09A95660F771F881FCE
:1002F000DAF7880F9695879597F9089597F99F678C
:1003000080E870E060E008959FEF80EC089500249D
:100310000A941616170618060906089500240A946A
:1003200012161306140605060895092E0394000CF0
:1003300011F4882352F0BB0F40F4BF2B11F460FF7F
:1003400004C06F5F7F4F8F4F9F4F089557FD9058A8
:10035000440F551F59F05F3F71F04795880F97FB89
:10036000991F61F09F3F79F0879508951216130643
:100370001406551FF2CF4695F1DF08C01616170672
:100380001806991FF1CF86957105610508940895A7
:10039000E894BB2766277727CB0197F908950AD001
:1003A000C4CFB5DF28F0BADF18F0952309F0A6CF47
:1003B000ABCFEFCFCBDFA8F39923D9F35523C9F304
:1003C000950F50E0551FAA27EE27FF27BB270024D3
:1003D0000894679520F4E20FF31FB41F0A1E220F42
:1003E000331F441FAA1F6695A9F7779530F4F30FC2
:1003F000B41F0A1E121E08F46395330F441FAA1F70
:10040000221F769599F7879520F4B40F0A1E121EC5
:10041000631F440FAA1F221F331F8695A9F7862F3B
:10042000712D602D11249F5750408AF0E1F08823F0
:100430004AF0EE0FFF1FBB1F661F771F881F9150EA
:100440005040A9F79E3F510570F058CFA2CF5F3FB3
:10045000ECF3983EDCF3869577956795B795F7951D
:10046000E7959F5FC1F7FE2B880F911D96958795A5
:0804700097F90895F894FFCFFD
:00000001FF
